{
  "abi": [
    {
      "inputs": [
        {
          "internalType": "address",
          "name": "_vault",
          "type": "address"
        },
        {
          "internalType": "int24",
          "name": "_baseThreshold",
          "type": "int24"
        },
        {
          "internalType": "int24",
          "name": "_limitThreshold",
          "type": "int24"
        },
        {
          "internalType": "int24",
          "name": "_maxTwapDeviation",
          "type": "int24"
        },
        {
          "internalType": "uint32",
          "name": "_twapDuration",
          "type": "uint32"
        },
        {
          "internalType": "address",
          "name": "_keeper",
          "type": "address"
        }
      ],
      "stateMutability": "nonpayable",
      "type": "constructor"
    },
    {
      "inputs": [],
      "name": "baseThreshold",
      "outputs": [
        {
          "internalType": "int24",
          "name": "",
          "type": "int24"
        }
      ],
      "stateMutability": "view",
      "type": "function"
    },
    {
      "inputs": [],
      "name": "getTick",
      "outputs": [
        {
          "internalType": "int24",
          "name": "tick",
          "type": "int24"
        }
      ],
      "stateMutability": "view",
      "type": "function"
    },
    {
      "inputs": [],
      "name": "getTwap",
      "outputs": [
        {
          "internalType": "int24",
          "name": "",
          "type": "int24"
        }
      ],
      "stateMutability": "view",
      "type": "function"
    },
    {
      "inputs": [],
      "name": "keeper",
      "outputs": [
        {
          "internalType": "address",
          "name": "",
          "type": "address"
        }
      ],
      "stateMutability": "view",
      "type": "function"
    },
    {
      "inputs": [],
      "name": "lastRebalance",
      "outputs": [
        {
          "internalType": "uint256",
          "name": "",
          "type": "uint256"
        }
      ],
      "stateMutability": "view",
      "type": "function"
    },
    {
      "inputs": [],
      "name": "lastTick",
      "outputs": [
        {
          "internalType": "int24",
          "name": "",
          "type": "int24"
        }
      ],
      "stateMutability": "view",
      "type": "function"
    },
    {
      "inputs": [],
      "name": "limitThreshold",
      "outputs": [
        {
          "internalType": "int24",
          "name": "",
          "type": "int24"
        }
      ],
      "stateMutability": "view",
      "type": "function"
    },
    {
      "inputs": [],
      "name": "maxTwapDeviation",
      "outputs": [
        {
          "internalType": "int24",
          "name": "",
          "type": "int24"
        }
      ],
      "stateMutability": "view",
      "type": "function"
    },
    {
      "inputs": [],
      "name": "pool",
      "outputs": [
        {
          "internalType": "contract IUniswapV3Pool",
          "name": "",
          "type": "address"
        }
      ],
      "stateMutability": "view",
      "type": "function"
    },
    {
      "inputs": [],
      "name": "rebalance",
      "outputs": [],
      "stateMutability": "nonpayable",
      "type": "function"
    },
    {
      "inputs": [
        {
          "internalType": "int24",
          "name": "_baseThreshold",
          "type": "int24"
        }
      ],
      "name": "setBaseThreshold",
      "outputs": [],
      "stateMutability": "nonpayable",
      "type": "function"
    },
    {
      "inputs": [
        {
          "internalType": "address",
          "name": "_keeper",
          "type": "address"
        }
      ],
      "name": "setKeeper",
      "outputs": [],
      "stateMutability": "nonpayable",
      "type": "function"
    },
    {
      "inputs": [
        {
          "internalType": "int24",
          "name": "_limitThreshold",
          "type": "int24"
        }
      ],
      "name": "setLimitThreshold",
      "outputs": [],
      "stateMutability": "nonpayable",
      "type": "function"
    },
    {
      "inputs": [
        {
          "internalType": "int24",
          "name": "_maxTwapDeviation",
          "type": "int24"
        }
      ],
      "name": "setMaxTwapDeviation",
      "outputs": [],
      "stateMutability": "nonpayable",
      "type": "function"
    },
    {
      "inputs": [
        {
          "internalType": "uint32",
          "name": "_twapDuration",
          "type": "uint32"
        }
      ],
      "name": "setTwapDuration",
      "outputs": [],
      "stateMutability": "nonpayable",
      "type": "function"
    },
    {
      "inputs": [],
      "name": "tickSpacing",
      "outputs": [
        {
          "internalType": "int24",
          "name": "",
          "type": "int24"
        }
      ],
      "stateMutability": "view",
      "type": "function"
    },
    {
      "inputs": [],
      "name": "twapDuration",
      "outputs": [
        {
          "internalType": "uint32",
          "name": "",
          "type": "uint32"
        }
      ],
      "stateMutability": "view",
      "type": "function"
    },
    {
      "inputs": [],
      "name": "vault",
      "outputs": [
        {
          "internalType": "contract AlphaVault",
          "name": "",
          "type": "address"
        }
      ],
      "stateMutability": "view",
      "type": "function"
    }
  ],
  "bytecode": "60806040523480156200001157600080fd5b506040516200146338038062001463833981810160405260c08110156200003757600080fd5b5080516020808301516040808501516060860151608087015160a090970151600080546001600160a01b0319166001600160a01b03808a16919091179182905585516316f0115b60e01b8152955198999698949793969592949116926316f0115b9260048082019391829003018186803b158015620000b557600080fd5b505afa158015620000ca573d6000803e3d6000fd5b505050506040513d6020811015620000e157600080fd5b5051600180546001600160a01b0319166001600160a01b039283161790819055604080516334324e9f60e21b81529051919092169163d0c93a7c916004808301926020929190829003018186803b1580156200013c57600080fd5b505afa15801562000151573d6000803e3d6000fd5b505050506040513d60208110156200016857600080fd5b50516001805462ffffff60a01b1916600160a01b600293840b62ffffff908116919091029190911762ffffff60b81b1916600160b81b89850b8316021762ffffff60d01b1916600160d01b88850b831602176001600160e81b0316600160e81b87850b9290921691909102179055805463ffffffff191663ffffffff841617600160201b600160c01b0319166401000000006001600160a01b03841602179055620002138562000360565b6200021e8462000360565b60008360020b12156200026b576040805162461bcd60e51b815260206004820152601060248201526f36b0bc2a3bb0b82232bb34b0ba34b7b760811b604482015290519081900360640190fd5b60008263ffffffff1611620002b6576040805162461bcd60e51b815260206004820152600c60248201526b3a3bb0b8223ab930ba34b7b760a11b604482015290519081900360640190fd5b600160009054906101000a90046001600160a01b03166001600160a01b0316633850c7bd6040518163ffffffff1660e01b815260040160e06040518083038186803b1580156200030557600080fd5b505afa1580156200031a573d6000803e3d6000fd5b505050506040513d60e08110156200033157600080fd5b50602001516004805460029290920b62ffffff1662ffffff199092169190911790555062000471945050505050565b60008160020b13620003a9576040805162461bcd60e51b815260206004820152600d60248201526c07468726573686f6c64203e203609c1b604482015290519081900360640190fd5b620d89e8600282900b12620003fa576040805162461bcd60e51b81526020600482015260126024820152710e8d0e4cae6d0ded8c840e8dede40d0d2ced60731b604482015290519081900360640190fd5b600154600160a01b9004600290810b810b9082900b816200041757fe5b0760020b156200046e576040805162461bcd60e51b815260206004820152601760248201527f7468726573686f6c642025207469636b53706163696e67000000000000000000604482015290519081900360640190fd5b50565b610fe280620004816000396000f3fe608060405234801561001057600080fd5b50600436106101165760003560e01c8063a6329355116100a2578063c433c80a11610071578063c433c80a14610249578063d0c93a7c1461026c578063df8ad81414610274578063e7c7cb911461027c578063fbfa77cf1461028457610116565b8063a6329355146101f9578063a87bab9c14610219578063aced166114610221578063af7944801461022957610116565b80633cbff3fe116100e95780633cbff3fe146101995780633dfa5d87146101bb5780635d752a9a146101c3578063748747e6146101cb5780637d7c2a1c146101f157610116565b8063106b9ca11461011b57806316c3e29d1461013557806316f0115b1461015457806326d8954514610178575b600080fd5b61012361028c565b60408051918252519081900360200190f35b61013d610292565b6040805160029290920b8252519081900360200190f35b61015c6102a2565b604080516001600160a01b039092168252519081900360200190f35b6101806102b1565b6040805163ffffffff9092168252519081900360200190f35b6101b9600480360360208110156101af57600080fd5b503560020b6102bd565b005b61013d6103f2565b61013d6103fb565b6101b9600480360360208110156101e157600080fd5b50356001600160a01b031661068e565b6101b961077c565b6101b96004803603602081101561020f57600080fd5b503560020b610a53565b61013d610b45565b61015c610b55565b6101b96004803603602081101561023f57600080fd5b503560020b610b6b565b6101b96004803603602081101561025f57600080fd5b503563ffffffff16610c5d565b61013d610d84565b61013d610d94565b61013d610e0d565b61015c610e1d565b60035481565b600154600160d01b900460020b81565b6001546001600160a01b031681565b60025463ffffffff1681565b60008054906101000a90046001600160a01b03166001600160a01b0316635aa6e6756040518163ffffffff1660e01b815260040160206040518083038186803b15801561030957600080fd5b505afa15801561031d573d6000803e3d6000fd5b505050506040513d602081101561033357600080fd5b50516001600160a01b0316331461037e576040805162461bcd60e51b815260206004820152600a602482015269676f7665726e616e636560b01b604482015290519081900360640190fd5b60008160020b12156103ca576040805162461bcd60e51b815260206004820152601060248201526f36b0bc2a3bb0b82232bb34b0ba34b7b760811b604482015290519081900360640190fd5b6001805460029290920b62ffffff16600160e81b026001600160e81b03909216919091179055565b60045460020b81565b600280546040805183815260608101825260009363ffffffff909316928492602083019080368337019050509050818160008151811061043757fe5b602002602001019063ffffffff16908163ffffffff168152505060008160018151811061046057fe5b63ffffffff90921660209283029190910182015260015460405163883bdbfd60e01b8152600481018381528451602483015284516000946001600160a01b039094169363883bdbfd93879392839260449092019185810191028083838b5b838110156104d65781810151838201526020016104be565b505050509050019250505060006040518083038186803b1580156104f957600080fd5b505afa15801561050d573d6000803e3d6000fd5b505050506040513d6000823e601f3d908101601f19168201604090815281101561053657600080fd5b8101908080516040519392919084600160201b82111561055557600080fd5b90830190602082018581111561056a57600080fd5b82518660208202830111600160201b8211171561058657600080fd5b82525081516020918201928201910280838360005b838110156105b357818101518382015260200161059b565b5050505090500160405260200180516040519392919084600160201b8211156105db57600080fd5b9083019060208201858111156105f057600080fd5b82518660208202830111600160201b8211171561060c57600080fd5b82525081516020918201928201910280838360005b83811015610639578181015183820152602001610621565b505050509050016040525050505090508263ffffffff168160008151811061065d57fe5b60200260200101518260018151811061067257fe5b60200260200101510360060b8161068557fe5b05935050505090565b60008054906101000a90046001600160a01b03166001600160a01b0316635aa6e6756040518163ffffffff1660e01b815260040160206040518083038186803b1580156106da57600080fd5b505afa1580156106ee573d6000803e3d6000fd5b505050506040513d602081101561070457600080fd5b50516001600160a01b0316331461074f576040805162461bcd60e51b815260206004820152600a602482015269676f7665726e616e636560b01b604482015290519081900360640190fd5b600280546001600160a01b03909216600160201b02640100000000600160c01b0319909216919091179055565b600254600160201b90046001600160a01b031633146107cb576040805162461bcd60e51b815260206004820152600660248201526535b2b2b832b960d11b604482015290519081900360640190fd5b60006107d5610d94565b600154909150600090600160d01b8104600290810b810b600160b81b909204810b900b1361080f57600154600160d01b900460020b61081d565b600154600160b81b900460020b5b9050600160149054906101000a900460020b81620d89e719010160020b8260020b1361087f576040805162461bcd60e51b815260206004820152600c60248201526b7469636b20746f6f206c6f7760a01b604482015290519081900360640190fd5b600154600160a01b9004600290810b620d89e883900303810b9083900b126108de576040805162461bcd60e51b815260206004820152600d60248201526c0e8d2c6d640e8dede40d0d2ced609b1b604482015290519081900360640190fd5b60006108e86103fb565b905060008160020b8460020b1361090157838203610905565b8184035b90506001601d9054906101000a900460020b60020b8160020b1315610964576040805162461bcd60e51b815260206004820152601060248201526f36b0bc2a3bb0b82232bb34b0ba34b7b760811b604482015290519081900360640190fd5b600061096f85610e2c565b60015460008054604080516344d1475960e11b8152600160b81b8504600290810b808803820b6004840152600160a01b8704820b8801908101820b6024840152600160d01b909604810b808803820b604484015287820b606484015286820b60848401528601900b60a4820152905194955092936001600160a01b03909116926389a28eb29260c480830193919282900301818387803b158015610a1257600080fd5b505af1158015610a26573d6000803e3d6000fd5b50504260035550506004805460029790970b62ffffff1662ffffff19909716969096179095555050505050565b60008054906101000a90046001600160a01b03166001600160a01b0316635aa6e6756040518163ffffffff1660e01b815260040160206040518083038186803b158015610a9f57600080fd5b505afa158015610ab3573d6000803e3d6000fd5b505050506040513d6020811015610ac957600080fd5b50516001600160a01b03163314610b14576040805162461bcd60e51b815260206004820152600a602482015269676f7665726e616e636560b01b604482015290519081900360640190fd5b610b1d81610e9f565b6001805460029290920b62ffffff16600160b81b0262ffffff60b81b19909216919091179055565b600154600160b81b900460020b81565b600254600160201b90046001600160a01b031681565b60008054906101000a90046001600160a01b03166001600160a01b0316635aa6e6756040518163ffffffff1660e01b815260040160206040518083038186803b158015610bb757600080fd5b505afa158015610bcb573d6000803e3d6000fd5b505050506040513d6020811015610be157600080fd5b50516001600160a01b03163314610c2c576040805162461bcd60e51b815260206004820152600a602482015269676f7665726e616e636560b01b604482015290519081900360640190fd5b610c3581610e9f565b6001805460029290920b62ffffff16600160d01b0262ffffff60d01b19909216919091179055565b60008054906101000a90046001600160a01b03166001600160a01b0316635aa6e6756040518163ffffffff1660e01b815260040160206040518083038186803b158015610ca957600080fd5b505afa158015610cbd573d6000803e3d6000fd5b505050506040513d6020811015610cd357600080fd5b50516001600160a01b03163314610d1e576040805162461bcd60e51b815260206004820152600a602482015269676f7665726e616e636560b01b604482015290519081900360640190fd5b60008163ffffffff1611610d68576040805162461bcd60e51b815260206004820152600c60248201526b3a3bb0b8223ab930ba34b7b760a11b604482015290519081900360640190fd5b6002805463ffffffff191663ffffffff92909216919091179055565b600154600160a01b900460020b81565b60015460408051633850c7bd60e01b815290516000926001600160a01b031691633850c7bd9160048083019260e0929190829003018186803b158015610dd957600080fd5b505afa158015610ded573d6000803e3d6000fd5b505050506040513d60e0811015610e0357600080fd5b5060200151919050565b600154600160e81b900460020b81565b6000546001600160a01b031681565b600080600160149054906101000a900460020b60020b8360020b81610e4d57fe5b05905060008360020b128015610e815750600154600160a01b9004600290810b810b9084900b81610e7a57fe5b0760020b15155b15610e8b57600019015b600154600160a01b900460020b0292915050565b60008160020b13610ee7576040805162461bcd60e51b815260206004820152600d60248201526c07468726573686f6c64203e203609c1b604482015290519081900360640190fd5b620d89e8600282900b12610f37576040805162461bcd60e51b81526020600482015260126024820152710e8d0e4cae6d0ded8c840e8dede40d0d2ced60731b604482015290519081900360640190fd5b600154600160a01b9004600290810b810b9082900b81610f5357fe5b0760020b15610fa9576040805162461bcd60e51b815260206004820152601760248201527f7468726573686f6c642025207469636b53706163696e67000000000000000000604482015290519081900360640190fd5b5056fea2646970667358221220217d727ed40ee8b9ffbcf2842c91d50786f49441e7d646fc5e41e50627355d9f64736f6c63430007060033",
  "bytecodeSha1": "f8d42afa0702fa591d4136e990206285dadb9562",
  "compiler": {
    "evm_version": "istanbul",
    "optimizer": {
      "enabled": true,
      "runs": 200
    },
    "version": "0.7.6+commit.7338295f"
  },
  "contractName": "AlphaStrategy",
  "language": "Solidity",
  "natspec": {
    "kind": "dev",
    "methods": {
      "constructor": {
        "params": {
          "_baseThreshold": "Used to determine base order range",
          "_keeper": "Account that can call `rebalance()`",
          "_limitThreshold": "Used to determine limit order range",
          "_maxTwapDeviation": "Max deviation from TWAP during rebalance",
          "_twapDuration": "TWAP duration in seconds for rebalance check",
          "_vault": "Underlying Alpha Vault"
        }
      },
      "getTick()": {
        "details": "Fetches current price in ticks from Uniswap pool."
      },
      "getTwap()": {
        "details": "Fetches time-weighted average price in ticks from Uniswap pool."
      },
      "rebalance()": {
        "notice": "Calculates new ranges for orders and calls `vault.rebalance()` so that vault can update its positions. Can only be called by keeper."
      }
    },
    "notice": "Rebalancing strategy for Alpha Vault that maintains the two          following range orders:          1. Base order is placed between X - B and X + B + TS.          2. Limit order is placed between X - L and X, or between X + TS             and X + L + TS, depending on which token it holds more of.          where:              X = current tick rounded down to multiple of tick spacing              TS = tick spacing              B = base threshold              L = limit threshold          Note that after these two orders, the vault should have deposited          all its tokens and should only have a few wei left.          Because the limit order tries to sell whichever token the vault          holds more of, the vault's holdings will have a tendency to get          closer to a 1:1 balance. This enables it to continue providing          liquidity without running out of inventory of either token, and          achieves this without the need to swap directly on Uniswap and pay          fees.",
    "title": "Alpha Strategy",
    "version": 1
  },
  "opcodes": "PUSH1 0x80 PUSH1 0x40 MSTORE CALLVALUE DUP1 ISZERO PUSH2 0x10 JUMPI PUSH1 0x0 DUP1 REVERT JUMPDEST POP PUSH1 0x4 CALLDATASIZE LT PUSH2 0x116 JUMPI PUSH1 0x0 CALLDATALOAD PUSH1 0xE0 SHR DUP1 PUSH4 0xA6329355 GT PUSH2 0xA2 JUMPI DUP1 PUSH4 0xC433C80A GT PUSH2 0x71 JUMPI DUP1 PUSH4 0xC433C80A EQ PUSH2 0x249 JUMPI DUP1 PUSH4 0xD0C93A7C EQ PUSH2 0x26C JUMPI DUP1 PUSH4 0xDF8AD814 EQ PUSH2 0x274 JUMPI DUP1 PUSH4 0xE7C7CB91 EQ PUSH2 0x27C JUMPI DUP1 PUSH4 0xFBFA77CF EQ PUSH2 0x284 JUMPI PUSH2 0x116 JUMP JUMPDEST DUP1 PUSH4 0xA6329355 EQ PUSH2 0x1F9 JUMPI DUP1 PUSH4 0xA87BAB9C EQ PUSH2 0x219 JUMPI DUP1 PUSH4 0xACED1661 EQ PUSH2 0x221 JUMPI DUP1 PUSH4 0xAF794480 EQ PUSH2 0x229 JUMPI PUSH2 0x116 JUMP JUMPDEST DUP1 PUSH4 0x3CBFF3FE GT PUSH2 0xE9 JUMPI DUP1 PUSH4 0x3CBFF3FE EQ PUSH2 0x199 JUMPI DUP1 PUSH4 0x3DFA5D87 EQ PUSH2 0x1BB JUMPI DUP1 PUSH4 0x5D752A9A EQ PUSH2 0x1C3 JUMPI DUP1 PUSH4 0x748747E6 EQ PUSH2 0x1CB JUMPI DUP1 PUSH4 0x7D7C2A1C EQ PUSH2 0x1F1 JUMPI PUSH2 0x116 JUMP JUMPDEST DUP1 PUSH4 0x106B9CA1 EQ PUSH2 0x11B JUMPI DUP1 PUSH4 0x16C3E29D EQ PUSH2 0x135 JUMPI DUP1 PUSH4 0x16F0115B EQ PUSH2 0x154 JUMPI DUP1 PUSH4 0x26D89545 EQ PUSH2 0x178 JUMPI JUMPDEST PUSH1 0x0 DUP1 REVERT JUMPDEST PUSH2 0x123 PUSH2 0x28C JUMP JUMPDEST PUSH1 0x40 DUP1 MLOAD SWAP2 DUP3 MSTORE MLOAD SWAP1 DUP2 SWAP1 SUB PUSH1 0x20 ADD SWAP1 RETURN JUMPDEST PUSH2 0x13D PUSH2 0x292 JUMP JUMPDEST PUSH1 0x40 DUP1 MLOAD PUSH1 0x2 SWAP3 SWAP1 SWAP3 SIGNEXTEND DUP3 MSTORE MLOAD SWAP1 DUP2 SWAP1 SUB PUSH1 0x20 ADD SWAP1 RETURN JUMPDEST PUSH2 0x15C PUSH2 0x2A2 JUMP JUMPDEST PUSH1 0x40 DUP1 MLOAD PUSH1 0x1 PUSH1 0x1 PUSH1 0xA0 SHL SUB SWAP1 SWAP3 AND DUP3 MSTORE MLOAD SWAP1 DUP2 SWAP1 SUB PUSH1 0x20 ADD SWAP1 RETURN JUMPDEST PUSH2 0x180 PUSH2 0x2B1 JUMP JUMPDEST PUSH1 0x40 DUP1 MLOAD PUSH4 0xFFFFFFFF SWAP1 SWAP3 AND DUP3 MSTORE MLOAD SWAP1 DUP2 SWAP1 SUB PUSH1 0x20 ADD SWAP1 RETURN JUMPDEST PUSH2 0x1B9 PUSH1 0x4 DUP1 CALLDATASIZE SUB PUSH1 0x20 DUP2 LT ISZERO PUSH2 0x1AF JUMPI PUSH1 0x0 DUP1 REVERT JUMPDEST POP CALLDATALOAD PUSH1 0x2 SIGNEXTEND PUSH2 0x2BD JUMP JUMPDEST STOP JUMPDEST PUSH2 0x13D PUSH2 0x3F2 JUMP JUMPDEST PUSH2 0x13D PUSH2 0x3FB JUMP JUMPDEST PUSH2 0x1B9 PUSH1 0x4 DUP1 CALLDATASIZE SUB PUSH1 0x20 DUP2 LT ISZERO PUSH2 0x1E1 JUMPI PUSH1 0x0 DUP1 REVERT JUMPDEST POP CALLDATALOAD PUSH1 0x1 PUSH1 0x1 PUSH1 0xA0 SHL SUB AND PUSH2 0x68E JUMP JUMPDEST PUSH2 0x1B9 PUSH2 0x77C JUMP JUMPDEST PUSH2 0x1B9 PUSH1 0x4 DUP1 CALLDATASIZE SUB PUSH1 0x20 DUP2 LT ISZERO PUSH2 0x20F JUMPI PUSH1 0x0 DUP1 REVERT JUMPDEST POP CALLDATALOAD PUSH1 0x2 SIGNEXTEND PUSH2 0xA53 JUMP JUMPDEST PUSH2 0x13D PUSH2 0xB45 JUMP JUMPDEST PUSH2 0x15C PUSH2 0xB55 JUMP JUMPDEST PUSH2 0x1B9 PUSH1 0x4 DUP1 CALLDATASIZE SUB PUSH1 0x20 DUP2 LT ISZERO PUSH2 0x23F JUMPI PUSH1 0x0 DUP1 REVERT JUMPDEST POP CALLDATALOAD PUSH1 0x2 SIGNEXTEND PUSH2 0xB6B JUMP JUMPDEST PUSH2 0x1B9 PUSH1 0x4 DUP1 CALLDATASIZE SUB PUSH1 0x20 DUP2 LT ISZERO PUSH2 0x25F JUMPI PUSH1 0x0 DUP1 REVERT JUMPDEST POP CALLDATALOAD PUSH4 0xFFFFFFFF AND PUSH2 0xC5D JUMP JUMPDEST PUSH2 0x13D PUSH2 0xD84 JUMP JUMPDEST PUSH2 0x13D PUSH2 0xD94 JUMP JUMPDEST PUSH2 0x13D PUSH2 0xE0D JUMP JUMPDEST PUSH2 0x15C PUSH2 0xE1D JUMP JUMPDEST PUSH1 0x3 SLOAD DUP2 JUMP JUMPDEST PUSH1 0x1 SLOAD PUSH1 0x1 PUSH1 0xD0 SHL SWAP1 DIV PUSH1 0x2 SIGNEXTEND DUP2 JUMP JUMPDEST PUSH1 0x1 SLOAD PUSH1 0x1 PUSH1 0x1 PUSH1 0xA0 SHL SUB AND DUP2 JUMP JUMPDEST PUSH1 0x2 SLOAD PUSH4 0xFFFFFFFF AND DUP2 JUMP JUMPDEST PUSH1 0x0 DUP1 SLOAD SWAP1 PUSH2 0x100 EXP SWAP1 DIV PUSH1 0x1 PUSH1 0x1 PUSH1 0xA0 SHL SUB AND PUSH1 0x1 PUSH1 0x1 PUSH1 0xA0 SHL SUB AND PUSH4 0x5AA6E675 PUSH1 0x40 MLOAD DUP2 PUSH4 0xFFFFFFFF AND PUSH1 0xE0 SHL DUP2 MSTORE PUSH1 0x4 ADD PUSH1 0x20 PUSH1 0x40 MLOAD DUP1 DUP4 SUB DUP2 DUP7 DUP1 EXTCODESIZE ISZERO DUP1 ISZERO PUSH2 0x309 JUMPI PUSH1 0x0 DUP1 REVERT JUMPDEST POP GAS STATICCALL ISZERO DUP1 ISZERO PUSH2 0x31D JUMPI RETURNDATASIZE PUSH1 0x0 DUP1 RETURNDATACOPY RETURNDATASIZE PUSH1 0x0 REVERT JUMPDEST POP POP POP POP PUSH1 0x40 MLOAD RETURNDATASIZE PUSH1 0x20 DUP2 LT ISZERO PUSH2 0x333 JUMPI PUSH1 0x0 DUP1 REVERT JUMPDEST POP MLOAD PUSH1 0x1 PUSH1 0x1 PUSH1 0xA0 SHL SUB AND CALLER EQ PUSH2 0x37E JUMPI PUSH1 0x40 DUP1 MLOAD PUSH3 0x461BCD PUSH1 0xE5 SHL DUP2 MSTORE PUSH1 0x20 PUSH1 0x4 DUP3 ADD MSTORE PUSH1 0xA PUSH1 0x24 DUP3 ADD MSTORE PUSH10 0x676F7665726E616E6365 PUSH1 0xB0 SHL PUSH1 0x44 DUP3 ADD MSTORE SWAP1 MLOAD SWAP1 DUP2 SWAP1 SUB PUSH1 0x64 ADD SWAP1 REVERT JUMPDEST PUSH1 0x0 DUP2 PUSH1 0x2 SIGNEXTEND SLT ISZERO PUSH2 0x3CA JUMPI PUSH1 0x40 DUP1 MLOAD PUSH3 0x461BCD PUSH1 0xE5 SHL DUP2 MSTORE PUSH1 0x20 PUSH1 0x4 DUP3 ADD MSTORE PUSH1 0x10 PUSH1 0x24 DUP3 ADD MSTORE PUSH16 0x36B0BC2A3BB0B82232BB34B0BA34B7B7 PUSH1 0x81 SHL PUSH1 0x44 DUP3 ADD MSTORE SWAP1 MLOAD SWAP1 DUP2 SWAP1 SUB PUSH1 0x64 ADD SWAP1 REVERT JUMPDEST PUSH1 0x1 DUP1 SLOAD PUSH1 0x2 SWAP3 SWAP1 SWAP3 SIGNEXTEND PUSH3 0xFFFFFF AND PUSH1 0x1 PUSH1 0xE8 SHL MUL PUSH1 0x1 PUSH1 0x1 PUSH1 0xE8 SHL SUB SWAP1 SWAP3 AND SWAP2 SWAP1 SWAP2 OR SWAP1 SSTORE JUMP JUMPDEST PUSH1 0x4 SLOAD PUSH1 0x2 SIGNEXTEND DUP2 JUMP JUMPDEST PUSH1 0x2 DUP1 SLOAD PUSH1 0x40 DUP1 MLOAD DUP4 DUP2 MSTORE PUSH1 0x60 DUP2 ADD DUP3 MSTORE PUSH1 0x0 SWAP4 PUSH4 0xFFFFFFFF SWAP1 SWAP4 AND SWAP3 DUP5 SWAP3 PUSH1 0x20 DUP4 ADD SWAP1 DUP1 CALLDATASIZE DUP4 CALLDATACOPY ADD SWAP1 POP POP SWAP1 POP DUP2 DUP2 PUSH1 0x0 DUP2 MLOAD DUP2 LT PUSH2 0x437 JUMPI INVALID JUMPDEST PUSH1 0x20 MUL PUSH1 0x20 ADD ADD SWAP1 PUSH4 0xFFFFFFFF AND SWAP1 DUP2 PUSH4 0xFFFFFFFF AND DUP2 MSTORE POP POP PUSH1 0x0 DUP2 PUSH1 0x1 DUP2 MLOAD DUP2 LT PUSH2 0x460 JUMPI INVALID JUMPDEST PUSH4 0xFFFFFFFF SWAP1 SWAP3 AND PUSH1 0x20 SWAP3 DUP4 MUL SWAP2 SWAP1 SWAP2 ADD DUP3 ADD MSTORE PUSH1 0x1 SLOAD PUSH1 0x40 MLOAD PUSH4 0x883BDBFD PUSH1 0xE0 SHL DUP2 MSTORE PUSH1 0x4 DUP2 ADD DUP4 DUP2 MSTORE DUP5 MLOAD PUSH1 0x24 DUP4 ADD MSTORE DUP5 MLOAD PUSH1 0x0 SWAP5 PUSH1 0x1 PUSH1 0x1 PUSH1 0xA0 SHL SUB SWAP1 SWAP5 AND SWAP4 PUSH4 0x883BDBFD SWAP4 DUP8 SWAP4 SWAP3 DUP4 SWAP3 PUSH1 0x44 SWAP1 SWAP3 ADD SWAP2 DUP6 DUP2 ADD SWAP2 MUL DUP1 DUP4 DUP4 DUP12 JUMPDEST DUP4 DUP2 LT ISZERO PUSH2 0x4D6 JUMPI DUP2 DUP2 ADD MLOAD DUP4 DUP3 ADD MSTORE PUSH1 0x20 ADD PUSH2 0x4BE JUMP JUMPDEST POP POP POP POP SWAP1 POP ADD SWAP3 POP POP POP PUSH1 0x0 PUSH1 0x40 MLOAD DUP1 DUP4 SUB DUP2 DUP7 DUP1 EXTCODESIZE ISZERO DUP1 ISZERO PUSH2 0x4F9 JUMPI PUSH1 0x0 DUP1 REVERT JUMPDEST POP GAS STATICCALL ISZERO DUP1 ISZERO PUSH2 0x50D JUMPI RETURNDATASIZE PUSH1 0x0 DUP1 RETURNDATACOPY RETURNDATASIZE PUSH1 0x0 REVERT JUMPDEST POP POP POP POP PUSH1 0x40 MLOAD RETURNDATASIZE PUSH1 0x0 DUP3 RETURNDATACOPY PUSH1 0x1F RETURNDATASIZE SWAP1 DUP2 ADD PUSH1 0x1F NOT AND DUP3 ADD PUSH1 0x40 SWAP1 DUP2 MSTORE DUP2 LT ISZERO PUSH2 0x536 JUMPI PUSH1 0x0 DUP1 REVERT JUMPDEST DUP2 ADD SWAP1 DUP1 DUP1 MLOAD PUSH1 0x40 MLOAD SWAP4 SWAP3 SWAP2 SWAP1 DUP5 PUSH1 0x1 PUSH1 0x20 SHL DUP3 GT ISZERO PUSH2 0x555 JUMPI PUSH1 0x0 DUP1 REVERT JUMPDEST SWAP1 DUP4 ADD SWAP1 PUSH1 0x20 DUP3 ADD DUP6 DUP2 GT ISZERO PUSH2 0x56A JUMPI PUSH1 0x0 DUP1 REVERT JUMPDEST DUP3 MLOAD DUP7 PUSH1 0x20 DUP3 MUL DUP4 ADD GT PUSH1 0x1 PUSH1 0x20 SHL DUP3 GT OR ISZERO PUSH2 0x586 JUMPI PUSH1 0x0 DUP1 REVERT JUMPDEST DUP3 MSTORE POP DUP2 MLOAD PUSH1 0x20 SWAP2 DUP3 ADD SWAP3 DUP3 ADD SWAP2 MUL DUP1 DUP4 DUP4 PUSH1 0x0 JUMPDEST DUP4 DUP2 LT ISZERO PUSH2 0x5B3 JUMPI DUP2 DUP2 ADD MLOAD DUP4 DUP3 ADD MSTORE PUSH1 0x20 ADD PUSH2 0x59B JUMP JUMPDEST POP POP POP POP SWAP1 POP ADD PUSH1 0x40 MSTORE PUSH1 0x20 ADD DUP1 MLOAD PUSH1 0x40 MLOAD SWAP4 SWAP3 SWAP2 SWAP1 DUP5 PUSH1 0x1 PUSH1 0x20 SHL DUP3 GT ISZERO PUSH2 0x5DB JUMPI PUSH1 0x0 DUP1 REVERT JUMPDEST SWAP1 DUP4 ADD SWAP1 PUSH1 0x20 DUP3 ADD DUP6 DUP2 GT ISZERO PUSH2 0x5F0 JUMPI PUSH1 0x0 DUP1 REVERT JUMPDEST DUP3 MLOAD DUP7 PUSH1 0x20 DUP3 MUL DUP4 ADD GT PUSH1 0x1 PUSH1 0x20 SHL DUP3 GT OR ISZERO PUSH2 0x60C JUMPI PUSH1 0x0 DUP1 REVERT JUMPDEST DUP3 MSTORE POP DUP2 MLOAD PUSH1 0x20 SWAP2 DUP3 ADD SWAP3 DUP3 ADD SWAP2 MUL DUP1 DUP4 DUP4 PUSH1 0x0 JUMPDEST DUP4 DUP2 LT ISZERO PUSH2 0x639 JUMPI DUP2 DUP2 ADD MLOAD DUP4 DUP3 ADD MSTORE PUSH1 0x20 ADD PUSH2 0x621 JUMP JUMPDEST POP POP POP POP SWAP1 POP ADD PUSH1 0x40 MSTORE POP POP POP POP SWAP1 POP DUP3 PUSH4 0xFFFFFFFF AND DUP2 PUSH1 0x0 DUP2 MLOAD DUP2 LT PUSH2 0x65D JUMPI INVALID JUMPDEST PUSH1 0x20 MUL PUSH1 0x20 ADD ADD MLOAD DUP3 PUSH1 0x1 DUP2 MLOAD DUP2 LT PUSH2 0x672 JUMPI INVALID JUMPDEST PUSH1 0x20 MUL PUSH1 0x20 ADD ADD MLOAD SUB PUSH1 0x6 SIGNEXTEND DUP2 PUSH2 0x685 JUMPI INVALID JUMPDEST SDIV SWAP4 POP POP POP POP SWAP1 JUMP JUMPDEST PUSH1 0x0 DUP1 SLOAD SWAP1 PUSH2 0x100 EXP SWAP1 DIV PUSH1 0x1 PUSH1 0x1 PUSH1 0xA0 SHL SUB AND PUSH1 0x1 PUSH1 0x1 PUSH1 0xA0 SHL SUB AND PUSH4 0x5AA6E675 PUSH1 0x40 MLOAD DUP2 PUSH4 0xFFFFFFFF AND PUSH1 0xE0 SHL DUP2 MSTORE PUSH1 0x4 ADD PUSH1 0x20 PUSH1 0x40 MLOAD DUP1 DUP4 SUB DUP2 DUP7 DUP1 EXTCODESIZE ISZERO DUP1 ISZERO PUSH2 0x6DA JUMPI PUSH1 0x0 DUP1 REVERT JUMPDEST POP GAS STATICCALL ISZERO DUP1 ISZERO PUSH2 0x6EE JUMPI RETURNDATASIZE PUSH1 0x0 DUP1 RETURNDATACOPY RETURNDATASIZE PUSH1 0x0 REVERT JUMPDEST POP POP POP POP PUSH1 0x40 MLOAD RETURNDATASIZE PUSH1 0x20 DUP2 LT ISZERO PUSH2 0x704 JUMPI PUSH1 0x0 DUP1 REVERT JUMPDEST POP MLOAD PUSH1 0x1 PUSH1 0x1 PUSH1 0xA0 SHL SUB AND CALLER EQ PUSH2 0x74F JUMPI PUSH1 0x40 DUP1 MLOAD PUSH3 0x461BCD PUSH1 0xE5 SHL DUP2 MSTORE PUSH1 0x20 PUSH1 0x4 DUP3 ADD MSTORE PUSH1 0xA PUSH1 0x24 DUP3 ADD MSTORE PUSH10 0x676F7665726E616E6365 PUSH1 0xB0 SHL PUSH1 0x44 DUP3 ADD MSTORE SWAP1 MLOAD SWAP1 DUP2 SWAP1 SUB PUSH1 0x64 ADD SWAP1 REVERT JUMPDEST PUSH1 0x2 DUP1 SLOAD PUSH1 0x1 PUSH1 0x1 PUSH1 0xA0 SHL SUB SWAP1 SWAP3 AND PUSH1 0x1 PUSH1 0x20 SHL MUL PUSH5 0x100000000 PUSH1 0x1 PUSH1 0xC0 SHL SUB NOT SWAP1 SWAP3 AND SWAP2 SWAP1 SWAP2 OR SWAP1 SSTORE JUMP JUMPDEST PUSH1 0x2 SLOAD PUSH1 0x1 PUSH1 0x20 SHL SWAP1 DIV PUSH1 0x1 PUSH1 0x1 PUSH1 0xA0 SHL SUB AND CALLER EQ PUSH2 0x7CB JUMPI PUSH1 0x40 DUP1 MLOAD PUSH3 0x461BCD PUSH1 0xE5 SHL DUP2 MSTORE PUSH1 0x20 PUSH1 0x4 DUP3 ADD MSTORE PUSH1 0x6 PUSH1 0x24 DUP3 ADD MSTORE PUSH6 0x35B2B2B832B9 PUSH1 0xD1 SHL PUSH1 0x44 DUP3 ADD MSTORE SWAP1 MLOAD SWAP1 DUP2 SWAP1 SUB PUSH1 0x64 ADD SWAP1 REVERT JUMPDEST PUSH1 0x0 PUSH2 0x7D5 PUSH2 0xD94 JUMP JUMPDEST PUSH1 0x1 SLOAD SWAP1 SWAP2 POP PUSH1 0x0 SWAP1 PUSH1 0x1 PUSH1 0xD0 SHL DUP2 DIV PUSH1 0x2 SWAP1 DUP2 SIGNEXTEND DUP2 SIGNEXTEND PUSH1 0x1 PUSH1 0xB8 SHL SWAP1 SWAP3 DIV DUP2 SIGNEXTEND SWAP1 SIGNEXTEND SGT PUSH2 0x80F JUMPI PUSH1 0x1 SLOAD PUSH1 0x1 PUSH1 0xD0 SHL SWAP1 DIV PUSH1 0x2 SIGNEXTEND PUSH2 0x81D JUMP JUMPDEST PUSH1 0x1 SLOAD PUSH1 0x1 PUSH1 0xB8 SHL SWAP1 DIV PUSH1 0x2 SIGNEXTEND JUMPDEST SWAP1 POP PUSH1 0x1 PUSH1 0x14 SWAP1 SLOAD SWAP1 PUSH2 0x100 EXP SWAP1 DIV PUSH1 0x2 SIGNEXTEND DUP2 PUSH3 0xD89E7 NOT ADD ADD PUSH1 0x2 SIGNEXTEND DUP3 PUSH1 0x2 SIGNEXTEND SGT PUSH2 0x87F JUMPI PUSH1 0x40 DUP1 MLOAD PUSH3 0x461BCD PUSH1 0xE5 SHL DUP2 MSTORE PUSH1 0x20 PUSH1 0x4 DUP3 ADD MSTORE PUSH1 0xC PUSH1 0x24 DUP3 ADD MSTORE PUSH12 0x7469636B20746F6F206C6F77 PUSH1 0xA0 SHL PUSH1 0x44 DUP3 ADD MSTORE SWAP1 MLOAD SWAP1 DUP2 SWAP1 SUB PUSH1 0x64 ADD SWAP1 REVERT JUMPDEST PUSH1 0x1 SLOAD PUSH1 0x1 PUSH1 0xA0 SHL SWAP1 DIV PUSH1 0x2 SWAP1 DUP2 SIGNEXTEND PUSH3 0xD89E8 DUP4 SWAP1 SUB SUB DUP2 SIGNEXTEND SWAP1 DUP4 SWAP1 SIGNEXTEND SLT PUSH2 0x8DE JUMPI PUSH1 0x40 DUP1 MLOAD PUSH3 0x461BCD PUSH1 0xE5 SHL DUP2 MSTORE PUSH1 0x20 PUSH1 0x4 DUP3 ADD MSTORE PUSH1 0xD PUSH1 0x24 DUP3 ADD MSTORE PUSH13 0xE8D2C6D640E8DEDE40D0D2CED PUSH1 0x9B SHL PUSH1 0x44 DUP3 ADD MSTORE SWAP1 MLOAD SWAP1 DUP2 SWAP1 SUB PUSH1 0x64 ADD SWAP1 REVERT JUMPDEST PUSH1 0x0 PUSH2 0x8E8 PUSH2 0x3FB JUMP JUMPDEST SWAP1 POP PUSH1 0x0 DUP2 PUSH1 0x2 SIGNEXTEND DUP5 PUSH1 0x2 SIGNEXTEND SGT PUSH2 0x901 JUMPI DUP4 DUP3 SUB PUSH2 0x905 JUMP JUMPDEST DUP2 DUP5 SUB JUMPDEST SWAP1 POP PUSH1 0x1 PUSH1 0x1D SWAP1 SLOAD SWAP1 PUSH2 0x100 EXP SWAP1 DIV PUSH1 0x2 SIGNEXTEND PUSH1 0x2 SIGNEXTEND DUP2 PUSH1 0x2 SIGNEXTEND SGT ISZERO PUSH2 0x964 JUMPI PUSH1 0x40 DUP1 MLOAD PUSH3 0x461BCD PUSH1 0xE5 SHL DUP2 MSTORE PUSH1 0x20 PUSH1 0x4 DUP3 ADD MSTORE PUSH1 0x10 PUSH1 0x24 DUP3 ADD MSTORE PUSH16 0x36B0BC2A3BB0B82232BB34B0BA34B7B7 PUSH1 0x81 SHL PUSH1 0x44 DUP3 ADD MSTORE SWAP1 MLOAD SWAP1 DUP2 SWAP1 SUB PUSH1 0x64 ADD SWAP1 REVERT JUMPDEST PUSH1 0x0 PUSH2 0x96F DUP6 PUSH2 0xE2C JUMP JUMPDEST PUSH1 0x1 SLOAD PUSH1 0x0 DUP1 SLOAD PUSH1 0x40 DUP1 MLOAD PUSH4 0x44D14759 PUSH1 0xE1 SHL DUP2 MSTORE PUSH1 0x1 PUSH1 0xB8 SHL DUP6 DIV PUSH1 0x2 SWAP1 DUP2 SIGNEXTEND DUP1 DUP9 SUB DUP3 SIGNEXTEND PUSH1 0x4 DUP5 ADD MSTORE PUSH1 0x1 PUSH1 0xA0 SHL DUP8 DIV DUP3 SIGNEXTEND DUP9 ADD SWAP1 DUP2 ADD DUP3 SIGNEXTEND PUSH1 0x24 DUP5 ADD MSTORE PUSH1 0x1 PUSH1 0xD0 SHL SWAP1 SWAP7 DIV DUP2 SIGNEXTEND DUP1 DUP9 SUB DUP3 SIGNEXTEND PUSH1 0x44 DUP5 ADD MSTORE DUP8 DUP3 SIGNEXTEND PUSH1 0x64 DUP5 ADD MSTORE DUP7 DUP3 SIGNEXTEND PUSH1 0x84 DUP5 ADD MSTORE DUP7 ADD SWAP1 SIGNEXTEND PUSH1 0xA4 DUP3 ADD MSTORE SWAP1 MLOAD SWAP5 SWAP6 POP SWAP3 SWAP4 PUSH1 0x1 PUSH1 0x1 PUSH1 0xA0 SHL SUB SWAP1 SWAP2 AND SWAP3 PUSH4 0x89A28EB2 SWAP3 PUSH1 0xC4 DUP1 DUP4 ADD SWAP4 SWAP2 SWAP3 DUP3 SWAP1 SUB ADD DUP2 DUP4 DUP8 DUP1 EXTCODESIZE ISZERO DUP1 ISZERO PUSH2 0xA12 JUMPI PUSH1 0x0 DUP1 REVERT JUMPDEST POP GAS CALL ISZERO DUP1 ISZERO PUSH2 0xA26 JUMPI RETURNDATASIZE PUSH1 0x0 DUP1 RETURNDATACOPY RETURNDATASIZE PUSH1 0x0 REVERT JUMPDEST POP POP TIMESTAMP PUSH1 0x3 SSTORE POP POP PUSH1 0x4 DUP1 SLOAD PUSH1 0x2 SWAP8 SWAP1 SWAP8 SIGNEXTEND PUSH3 0xFFFFFF AND PUSH3 0xFFFFFF NOT SWAP1 SWAP8 AND SWAP7 SWAP1 SWAP7 OR SWAP1 SWAP6 SSTORE POP POP POP POP POP JUMP JUMPDEST PUSH1 0x0 DUP1 SLOAD SWAP1 PUSH2 0x100 EXP SWAP1 DIV PUSH1 0x1 PUSH1 0x1 PUSH1 0xA0 SHL SUB AND PUSH1 0x1 PUSH1 0x1 PUSH1 0xA0 SHL SUB AND PUSH4 0x5AA6E675 PUSH1 0x40 MLOAD DUP2 PUSH4 0xFFFFFFFF AND PUSH1 0xE0 SHL DUP2 MSTORE PUSH1 0x4 ADD PUSH1 0x20 PUSH1 0x40 MLOAD DUP1 DUP4 SUB DUP2 DUP7 DUP1 EXTCODESIZE ISZERO DUP1 ISZERO PUSH2 0xA9F JUMPI PUSH1 0x0 DUP1 REVERT JUMPDEST POP GAS STATICCALL ISZERO DUP1 ISZERO PUSH2 0xAB3 JUMPI RETURNDATASIZE PUSH1 0x0 DUP1 RETURNDATACOPY RETURNDATASIZE PUSH1 0x0 REVERT JUMPDEST POP POP POP POP PUSH1 0x40 MLOAD RETURNDATASIZE PUSH1 0x20 DUP2 LT ISZERO PUSH2 0xAC9 JUMPI PUSH1 0x0 DUP1 REVERT JUMPDEST POP MLOAD PUSH1 0x1 PUSH1 0x1 PUSH1 0xA0 SHL SUB AND CALLER EQ PUSH2 0xB14 JUMPI PUSH1 0x40 DUP1 MLOAD PUSH3 0x461BCD PUSH1 0xE5 SHL DUP2 MSTORE PUSH1 0x20 PUSH1 0x4 DUP3 ADD MSTORE PUSH1 0xA PUSH1 0x24 DUP3 ADD MSTORE PUSH10 0x676F7665726E616E6365 PUSH1 0xB0 SHL PUSH1 0x44 DUP3 ADD MSTORE SWAP1 MLOAD SWAP1 DUP2 SWAP1 SUB PUSH1 0x64 ADD SWAP1 REVERT JUMPDEST PUSH2 0xB1D DUP2 PUSH2 0xE9F JUMP JUMPDEST PUSH1 0x1 DUP1 SLOAD PUSH1 0x2 SWAP3 SWAP1 SWAP3 SIGNEXTEND PUSH3 0xFFFFFF AND PUSH1 0x1 PUSH1 0xB8 SHL MUL PUSH3 0xFFFFFF PUSH1 0xB8 SHL NOT SWAP1 SWAP3 AND SWAP2 SWAP1 SWAP2 OR SWAP1 SSTORE JUMP JUMPDEST PUSH1 0x1 SLOAD PUSH1 0x1 PUSH1 0xB8 SHL SWAP1 DIV PUSH1 0x2 SIGNEXTEND DUP2 JUMP JUMPDEST PUSH1 0x2 SLOAD PUSH1 0x1 PUSH1 0x20 SHL SWAP1 DIV PUSH1 0x1 PUSH1 0x1 PUSH1 0xA0 SHL SUB AND DUP2 JUMP JUMPDEST PUSH1 0x0 DUP1 SLOAD SWAP1 PUSH2 0x100 EXP SWAP1 DIV PUSH1 0x1 PUSH1 0x1 PUSH1 0xA0 SHL SUB AND PUSH1 0x1 PUSH1 0x1 PUSH1 0xA0 SHL SUB AND PUSH4 0x5AA6E675 PUSH1 0x40 MLOAD DUP2 PUSH4 0xFFFFFFFF AND PUSH1 0xE0 SHL DUP2 MSTORE PUSH1 0x4 ADD PUSH1 0x20 PUSH1 0x40 MLOAD DUP1 DUP4 SUB DUP2 DUP7 DUP1 EXTCODESIZE ISZERO DUP1 ISZERO PUSH2 0xBB7 JUMPI PUSH1 0x0 DUP1 REVERT JUMPDEST POP GAS STATICCALL ISZERO DUP1 ISZERO PUSH2 0xBCB JUMPI RETURNDATASIZE PUSH1 0x0 DUP1 RETURNDATACOPY RETURNDATASIZE PUSH1 0x0 REVERT JUMPDEST POP POP POP POP PUSH1 0x40 MLOAD RETURNDATASIZE PUSH1 0x20 DUP2 LT ISZERO PUSH2 0xBE1 JUMPI PUSH1 0x0 DUP1 REVERT JUMPDEST POP MLOAD PUSH1 0x1 PUSH1 0x1 PUSH1 0xA0 SHL SUB AND CALLER EQ PUSH2 0xC2C JUMPI PUSH1 0x40 DUP1 MLOAD PUSH3 0x461BCD PUSH1 0xE5 SHL DUP2 MSTORE PUSH1 0x20 PUSH1 0x4 DUP3 ADD MSTORE PUSH1 0xA PUSH1 0x24 DUP3 ADD MSTORE PUSH10 0x676F7665726E616E6365 PUSH1 0xB0 SHL PUSH1 0x44 DUP3 ADD MSTORE SWAP1 MLOAD SWAP1 DUP2 SWAP1 SUB PUSH1 0x64 ADD SWAP1 REVERT JUMPDEST PUSH2 0xC35 DUP2 PUSH2 0xE9F JUMP JUMPDEST PUSH1 0x1 DUP1 SLOAD PUSH1 0x2 SWAP3 SWAP1 SWAP3 SIGNEXTEND PUSH3 0xFFFFFF AND PUSH1 0x1 PUSH1 0xD0 SHL MUL PUSH3 0xFFFFFF PUSH1 0xD0 SHL NOT SWAP1 SWAP3 AND SWAP2 SWAP1 SWAP2 OR SWAP1 SSTORE JUMP JUMPDEST PUSH1 0x0 DUP1 SLOAD SWAP1 PUSH2 0x100 EXP SWAP1 DIV PUSH1 0x1 PUSH1 0x1 PUSH1 0xA0 SHL SUB AND PUSH1 0x1 PUSH1 0x1 PUSH1 0xA0 SHL SUB AND PUSH4 0x5AA6E675 PUSH1 0x40 MLOAD DUP2 PUSH4 0xFFFFFFFF AND PUSH1 0xE0 SHL DUP2 MSTORE PUSH1 0x4 ADD PUSH1 0x20 PUSH1 0x40 MLOAD DUP1 DUP4 SUB DUP2 DUP7 DUP1 EXTCODESIZE ISZERO DUP1 ISZERO PUSH2 0xCA9 JUMPI PUSH1 0x0 DUP1 REVERT JUMPDEST POP GAS STATICCALL ISZERO DUP1 ISZERO PUSH2 0xCBD JUMPI RETURNDATASIZE PUSH1 0x0 DUP1 RETURNDATACOPY RETURNDATASIZE PUSH1 0x0 REVERT JUMPDEST POP POP POP POP PUSH1 0x40 MLOAD RETURNDATASIZE PUSH1 0x20 DUP2 LT ISZERO PUSH2 0xCD3 JUMPI PUSH1 0x0 DUP1 REVERT JUMPDEST POP MLOAD PUSH1 0x1 PUSH1 0x1 PUSH1 0xA0 SHL SUB AND CALLER EQ PUSH2 0xD1E JUMPI PUSH1 0x40 DUP1 MLOAD PUSH3 0x461BCD PUSH1 0xE5 SHL DUP2 MSTORE PUSH1 0x20 PUSH1 0x4 DUP3 ADD MSTORE PUSH1 0xA PUSH1 0x24 DUP3 ADD MSTORE PUSH10 0x676F7665726E616E6365 PUSH1 0xB0 SHL PUSH1 0x44 DUP3 ADD MSTORE SWAP1 MLOAD SWAP1 DUP2 SWAP1 SUB PUSH1 0x64 ADD SWAP1 REVERT JUMPDEST PUSH1 0x0 DUP2 PUSH4 0xFFFFFFFF AND GT PUSH2 0xD68 JUMPI PUSH1 0x40 DUP1 MLOAD PUSH3 0x461BCD PUSH1 0xE5 SHL DUP2 MSTORE PUSH1 0x20 PUSH1 0x4 DUP3 ADD MSTORE PUSH1 0xC PUSH1 0x24 DUP3 ADD MSTORE PUSH12 0x3A3BB0B8223AB930BA34B7B7 PUSH1 0xA1 SHL PUSH1 0x44 DUP3 ADD MSTORE SWAP1 MLOAD SWAP1 DUP2 SWAP1 SUB PUSH1 0x64 ADD SWAP1 REVERT JUMPDEST PUSH1 0x2 DUP1 SLOAD PUSH4 0xFFFFFFFF NOT AND PUSH4 0xFFFFFFFF SWAP3 SWAP1 SWAP3 AND SWAP2 SWAP1 SWAP2 OR SWAP1 SSTORE JUMP JUMPDEST PUSH1 0x1 SLOAD PUSH1 0x1 PUSH1 0xA0 SHL SWAP1 DIV PUSH1 0x2 SIGNEXTEND DUP2 JUMP JUMPDEST PUSH1 0x1 SLOAD PUSH1 0x40 DUP1 MLOAD PUSH4 0x3850C7BD PUSH1 0xE0 SHL DUP2 MSTORE SWAP1 MLOAD PUSH1 0x0 SWAP3 PUSH1 0x1 PUSH1 0x1 PUSH1 0xA0 SHL SUB AND SWAP2 PUSH4 0x3850C7BD SWAP2 PUSH1 0x4 DUP1 DUP4 ADD SWAP3 PUSH1 0xE0 SWAP3 SWAP2 SWAP1 DUP3 SWAP1 SUB ADD DUP2 DUP7 DUP1 EXTCODESIZE ISZERO DUP1 ISZERO PUSH2 0xDD9 JUMPI PUSH1 0x0 DUP1 REVERT JUMPDEST POP GAS STATICCALL ISZERO DUP1 ISZERO PUSH2 0xDED JUMPI RETURNDATASIZE PUSH1 0x0 DUP1 RETURNDATACOPY RETURNDATASIZE PUSH1 0x0 REVERT JUMPDEST POP POP POP POP PUSH1 0x40 MLOAD RETURNDATASIZE PUSH1 0xE0 DUP2 LT ISZERO PUSH2 0xE03 JUMPI PUSH1 0x0 DUP1 REVERT JUMPDEST POP PUSH1 0x20 ADD MLOAD SWAP2 SWAP1 POP JUMP JUMPDEST PUSH1 0x1 SLOAD PUSH1 0x1 PUSH1 0xE8 SHL SWAP1 DIV PUSH1 0x2 SIGNEXTEND DUP2 JUMP JUMPDEST PUSH1 0x0 SLOAD PUSH1 0x1 PUSH1 0x1 PUSH1 0xA0 SHL SUB AND DUP2 JUMP JUMPDEST PUSH1 0x0 DUP1 PUSH1 0x1 PUSH1 0x14 SWAP1 SLOAD SWAP1 PUSH2 0x100 EXP SWAP1 DIV PUSH1 0x2 SIGNEXTEND PUSH1 0x2 SIGNEXTEND DUP4 PUSH1 0x2 SIGNEXTEND DUP2 PUSH2 0xE4D JUMPI INVALID JUMPDEST SDIV SWAP1 POP PUSH1 0x0 DUP4 PUSH1 0x2 SIGNEXTEND SLT DUP1 ISZERO PUSH2 0xE81 JUMPI POP PUSH1 0x1 SLOAD PUSH1 0x1 PUSH1 0xA0 SHL SWAP1 DIV PUSH1 0x2 SWAP1 DUP2 SIGNEXTEND DUP2 SIGNEXTEND SWAP1 DUP5 SWAP1 SIGNEXTEND DUP2 PUSH2 0xE7A JUMPI INVALID JUMPDEST SMOD PUSH1 0x2 SIGNEXTEND ISZERO ISZERO JUMPDEST ISZERO PUSH2 0xE8B JUMPI PUSH1 0x0 NOT ADD JUMPDEST PUSH1 0x1 SLOAD PUSH1 0x1 PUSH1 0xA0 SHL SWAP1 DIV PUSH1 0x2 SIGNEXTEND MUL SWAP3 SWAP2 POP POP JUMP JUMPDEST PUSH1 0x0 DUP2 PUSH1 0x2 SIGNEXTEND SGT PUSH2 0xEE7 JUMPI PUSH1 0x40 DUP1 MLOAD PUSH3 0x461BCD PUSH1 0xE5 SHL DUP2 MSTORE PUSH1 0x20 PUSH1 0x4 DUP3 ADD MSTORE PUSH1 0xD PUSH1 0x24 DUP3 ADD MSTORE PUSH13 0x7468726573686F6C64203E203 PUSH1 0x9C SHL PUSH1 0x44 DUP3 ADD MSTORE SWAP1 MLOAD SWAP1 DUP2 SWAP1 SUB PUSH1 0x64 ADD SWAP1 REVERT JUMPDEST PUSH3 0xD89E8 PUSH1 0x2 DUP3 SWAP1 SIGNEXTEND SLT PUSH2 0xF37 JUMPI PUSH1 0x40 DUP1 MLOAD PUSH3 0x461BCD PUSH1 0xE5 SHL DUP2 MSTORE PUSH1 0x20 PUSH1 0x4 DUP3 ADD MSTORE PUSH1 0x12 PUSH1 0x24 DUP3 ADD MSTORE PUSH18 0xE8D0E4CAE6D0DED8C840E8DEDE40D0D2CED PUSH1 0x73 SHL PUSH1 0x44 DUP3 ADD MSTORE SWAP1 MLOAD SWAP1 DUP2 SWAP1 SUB PUSH1 0x64 ADD SWAP1 REVERT JUMPDEST PUSH1 0x1 SLOAD PUSH1 0x1 PUSH1 0xA0 SHL SWAP1 DIV PUSH1 0x2 SWAP1 DUP2 SIGNEXTEND DUP2 SIGNEXTEND SWAP1 DUP3 SWAP1 SIGNEXTEND DUP2 PUSH2 0xF53 JUMPI INVALID JUMPDEST SMOD PUSH1 0x2 SIGNEXTEND ISZERO PUSH2 0xFA9 JUMPI PUSH1 0x40 DUP1 MLOAD PUSH3 0x461BCD PUSH1 0xE5 SHL DUP2 MSTORE PUSH1 0x20 PUSH1 0x4 DUP3 ADD MSTORE PUSH1 0x17 PUSH1 0x24 DUP3 ADD MSTORE PUSH32 0x7468726573686F6C642025207469636B53706163696E67000000000000000000 PUSH1 0x44 DUP3 ADD MSTORE SWAP1 MLOAD SWAP1 DUP2 SWAP1 SUB PUSH1 0x64 ADD SWAP1 REVERT JUMPDEST POP JUMP INVALID LOG2 PUSH5 0x6970667358 0x22 SLT KECCAK256 0x21 PUSH30 0x727ED40EE8B9FFBCF2842C91D50786F49441E7D646FC5E41E50627355D9F PUSH5 0x736F6C6343 STOP SMOD MOD STOP CALLER ",
  "sha1": "10f5ac9120e33f7a7cc229f1a1378bbf48f8e856",
  "source": "// SPDX-License-Identifier: Unlicense\n\npragma solidity 0.7.6;\n\nimport \"@uniswap/v3-core/contracts/interfaces/IUniswapV3Pool.sol\";\nimport \"@uniswap/v3-core/contracts/libraries/TickMath.sol\";\n\nimport \"./AlphaVault.sol\";\n\n/**\n * @title   Alpha Strategy\n * @notice  Rebalancing strategy for Alpha Vault that maintains the two\n *          following range orders:\n *\n *          1. Base order is placed between X - B and X + B + TS.\n *          2. Limit order is placed between X - L and X, or between X + TS\n *             and X + L + TS, depending on which token it holds more of.\n *\n *          where:\n *\n *              X = current tick rounded down to multiple of tick spacing\n *              TS = tick spacing\n *              B = base threshold\n *              L = limit threshold\n *\n *          Note that after these two orders, the vault should have deposited\n *          all its tokens and should only have a few wei left.\n *\n *          Because the limit order tries to sell whichever token the vault\n *          holds more of, the vault's holdings will have a tendency to get\n *          closer to a 1:1 balance. This enables it to continue providing\n *          liquidity without running out of inventory of either token, and\n *          achieves this without the need to swap directly on Uniswap and pay\n *          fees.\n */\ncontract AlphaStrategy {\n    AlphaVault public vault;\n    IUniswapV3Pool public pool;\n    int24 public tickSpacing;\n\n    int24 public baseThreshold;\n    int24 public limitThreshold;\n    int24 public maxTwapDeviation;\n    uint32 public twapDuration;\n    address public keeper;\n\n    uint256 public lastRebalance;\n    int24 public lastTick;\n\n    /**\n     * @param _vault Underlying Alpha Vault\n     * @param _baseThreshold Used to determine base order range\n     * @param _limitThreshold Used to determine limit order range\n     * @param _maxTwapDeviation Max deviation from TWAP during rebalance\n     * @param _twapDuration TWAP duration in seconds for rebalance check\n     * @param _keeper Account that can call `rebalance()`\n     */\n    constructor(\n        address _vault,\n        int24 _baseThreshold,\n        int24 _limitThreshold,\n        int24 _maxTwapDeviation,\n        uint32 _twapDuration,\n        address _keeper\n    ) {\n        vault = AlphaVault(_vault);\n        pool = vault.pool();\n        tickSpacing = pool.tickSpacing();\n\n        baseThreshold = _baseThreshold;\n        limitThreshold = _limitThreshold;\n        maxTwapDeviation = _maxTwapDeviation;\n        twapDuration = _twapDuration;\n        keeper = _keeper;\n\n        _checkThreshold(_baseThreshold);\n        _checkThreshold(_limitThreshold);\n        require(_maxTwapDeviation >= 0, \"maxTwapDeviation\");\n        require(_twapDuration > 0, \"twapDuration\");\n\n        (, lastTick, , , , , ) = pool.slot0();\n    }\n\n    /**\n     * @notice Calculates new ranges for orders and calls `vault.rebalance()`\n     * so that vault can update its positions. Can only be called by keeper.\n     */\n    function rebalance() external {\n        require(msg.sender == keeper, \"keeper\");\n\n        // Check price is not too close to min/max allowed by Uniswap. Price\n        // shouldn't be this extreme unless something was wrong with the pool.\n        int24 tick = getTick();\n        int24 maxThreshold = baseThreshold > limitThreshold ? baseThreshold : limitThreshold;\n        require(tick > TickMath.MIN_TICK + maxThreshold + tickSpacing, \"tick too low\");\n        require(tick < TickMath.MAX_TICK - maxThreshold - tickSpacing, \"tick too high\");\n\n        // Check price has not moved a lot recently. This mitigates price\n        // manipulation during rebalance and also prevents placing orders\n        // when it's too volatile.\n        int24 twap = getTwap();\n        int24 deviation = tick > twap ? tick - twap : twap - tick;\n        require(deviation <= maxTwapDeviation, \"maxTwapDeviation\");\n\n        int24 tickFloor = _floor(tick);\n        int24 tickCeil = tickFloor + tickSpacing;\n\n        vault.rebalance(\n            tickFloor - baseThreshold,\n            tickCeil + baseThreshold,\n            tickFloor - limitThreshold,\n            tickFloor,\n            tickCeil,\n            tickCeil + limitThreshold\n        );\n\n        lastRebalance = block.timestamp;\n        lastTick = tick;\n    }\n\n    /// @dev Fetches current price in ticks from Uniswap pool.\n    function getTick() public view returns (int24 tick) {\n        (, tick, , , , , ) = pool.slot0();\n    }\n\n    /// @dev Fetches time-weighted average price in ticks from Uniswap pool.\n    function getTwap() public view returns (int24) {\n        uint32 _twapDuration = twapDuration;\n        uint32[] memory secondsAgo = new uint32[](2);\n        secondsAgo[0] = _twapDuration;\n        secondsAgo[1] = 0;\n\n        (int56[] memory tickCumulatives, ) = pool.observe(secondsAgo);\n        return int24((tickCumulatives[1] - tickCumulatives[0]) / _twapDuration);\n    }\n\n    /// @dev Rounds tick down towards negative infinity so that it's a multiple\n    /// of `tickSpacing`.\n    function _floor(int24 tick) internal view returns (int24) {\n        int24 compressed = tick / tickSpacing;\n        if (tick < 0 && tick % tickSpacing != 0) compressed--;\n        return compressed * tickSpacing;\n    }\n\n    function _checkThreshold(int24 threshold) internal view {\n        require(threshold > 0, \"threshold > 0\");\n        require(threshold < TickMath.MAX_TICK, \"threshold too high\");\n        require(threshold % tickSpacing == 0, \"threshold % tickSpacing\");\n    }\n\n    function setKeeper(address _keeper) external onlyGovernance {\n        keeper = _keeper;\n    }\n\n    function setBaseThreshold(int24 _baseThreshold) external onlyGovernance {\n        _checkThreshold(_baseThreshold);\n        baseThreshold = _baseThreshold;\n    }\n\n    function setLimitThreshold(int24 _limitThreshold) external onlyGovernance {\n        _checkThreshold(_limitThreshold);\n        limitThreshold = _limitThreshold;\n    }\n\n    function setMaxTwapDeviation(int24 _maxTwapDeviation) external onlyGovernance {\n        require(_maxTwapDeviation >= 0, \"maxTwapDeviation\");\n        maxTwapDeviation = _maxTwapDeviation;\n    }\n\n    function setTwapDuration(uint32 _twapDuration) external onlyGovernance {\n        require(_twapDuration > 0, \"twapDuration\");\n        twapDuration = _twapDuration;\n    }\n\n    /// @dev Uses same governance as underlying vault.\n    modifier onlyGovernance {\n        require(msg.sender == vault.governance(), \"governance\");\n        _;\n    }\n}\n",
  "sourcePath": "contracts/AlphaStrategy.sol",
  "type": "contract"
}